S014000066696E616C70726F6A6563742E737265630F
S1130000E0C00000FBC00000F9C00000F7C0000021
S1130010F5C00000F3C00000F1C00000EFC0000014
S1130020EDC00000EBC00000E9C00000E7C0000024
S1130030E5C0000008C10000E1C00000DFC000000E
S1130040DDC00000DBC00000D9C00000D7C0000044
S1130050D5C00000D3C00000D1C00000CFC0000054
S1130060CDC00000CBC00000C9C00000C7C0000064
S1130070C5C00000C3C00000C1C00000BFC0000074
S1130080BDC00000BBC00000B9C00000C501C8016C
S1130090CB01CE01D101D401D701DA01DD01E001A8
S11300A0E301E601E901EC01EF01F201F501F801D8
S11300B0FB01FE010102040207020A020D02100202
S11300C01302160219021C021F0222022502280230
S11300D02B022E023102340237023A023D02400260
S11300E04302460249024C024F0252025502580290
S11300F05B0204040E1F1F1F0E0404040404040402
S11301000404000306090C0F1215181C1F222528CD
S11301102B2E303336393C3F414447494C4E5153E2
S113012055585A5C5E60626466686A6C6D6F707282
S11301307375767778797A7B7C7C7D7E7E7F7F7F12
S11301407F7F7F7F7F7F7F7F7E7E7D7C7C7B7A79D4
S1130150787776757372706F6D6C6A6866646260C6
S11301605E5C5A585553514E4C494744413F3C39C3
S11301703633302E2B2825221F1C1815120F0C097C
S1130180060300FDFAF7F4F1EEEBE8E4E1DEDBD878
S1130190D5D2D0CDCAC7C4C1BFBCB9B7B4B2AFAD54
S11301A0ABA8A6A4A2A09E9C9A9896949391908E94
S11301B08D8B8A89888786858484838282818181E4
S11301C0818111241FBECFEFD0E4DEBFCDBF11E08B
S11301D0A0E0B1E0E4EEFAE000E00BBF02C007905B
S11301E00D92A231B107D9F721E0A2E1B1E001C03B
S11301F01D92A731B207E1F7C4D372C401CF8BE0DB
S1130200809381008DE790E090938900809388002B
S113021082E080936F001092850010928400809198
S1130220000190910101A0910201B091030180931A
S1130230120190931301A0931401B09315018FB789
S113024080688FBF08951F920F920FB60F921124EA
S11302508F939F93AF93BF93809112019091130159
S1130260A0911401B09115010197A109B1098093DE
S1130270120190931301A0931401B0931501892BDB
S11302808A2B8B2B99F481E08093160180910001D5
S113029090910101A0910201B09103018093120198
S11302A090931301A0931401B0931501BF91AF91E2
S11302B09F918F910F900FBE0F901F901895181655
S11302C019069CF440E050E077E063E00BC00000C6
S11302D02150310921153105D1F74F5F5F4F481780
S11302E0590719F0272F362FF2CF089528988BB984
S11302F0299A0000299882E090E0E1CF089581E0F6
S1130300F5CF0895813118F48158F0CF08958155BF
S1130310EDCF089584E690E0D2DF88E3E7DF86E05E
S1130320E5DF8FE0E3DF81E0E1DF8AE090E0C7CF43
S11303300895289A8BB9299A0000299881E090E0C1
S1130340BECF08950F931F93CF93DF93182FEB0124
S1130350D6DF8881882359F001E0010F812FD2DF95
S11303608991E7DF8881882311F0102FF5CFDF9181
S1130370CF911F910F91089590E08333910508F078
S11303809DC0FC01EA5BFF4FA5C38EE788B90895C1
S113039082E188B908958CEB88B9089586EB88B911
S11303A0089582ED88B9089586EE88B908958EEE91
S11303B088B9089582E388B908958EEF88B90895BD
S11303C086EF88B908958AEF88B908958EEC88B9C4
S11303D008958CE688B908958EE988B908958CEE5D
S11303E088B9089588EE88B9089581E088B9089598
S11303F08EE688B908958AED88B908958AEC88B99B
S1130400089588E488B908958EE188B908958CE444
S113041088B908958AEA88B908958AE788B9089559
S11304208AE888B9089588EF88B9089588E688B974
S1130430089588E888B908958CEC88B908958EE504
S113044088B908958EE088B9089584E588B9089537
S113045080ED88B9089584EA88B9089586ED88B94D
S1130460089588E988B908958AEB88B9089588ECD5
S113047088B9089582E988B908958AE588B9089504
S113048080E588B908958AE088B9089584E288B936
S1130490089582EC88B9089582E488B9089588E1C2
S11304A088B9089580EE88B908958CE888B90895CC
S11304B086E888B9089580EB88B9089580E888B9FA
S11304C008952F923F924F925F926F927F928F92F4
S11304D09F92AF92BF92CF92DF92EF92FF920F93CF
S11304E01F93CF93DF93CDB7DEB7A2970FB6F894DF
S11304F0DEBF0FBECDBF9A8B898B7C8B6B8B388B09
S11305002F8781E090E09C0102C0220F331F4A959F
S1130510E2F73C832B83213041E034070CF09CC18B
S1130520B90161507109161617060CF046C0A98866
S1130530BA885FEFA51AB50AAB89BC89119640E069
S113054050E00B811C81FC014D01E988FA88CB88BD
S1130550DC88802F912F959587959A01280F391F54
S113056062177307C4F39C012150310942235323BA
S1130570480F591FE417F507B4F4D5012C91C701AE
S1130580840F951FDC013C91D5013C93DC012C9335
S1130590D4012C91C601840F951FDC013C91D40138
S11305A03C93DC012C933196BFEFAB1ABB0A2FEFBF
S11305B0821A920A6E177F0764F64B815C8142307F
S11305C051050CF44CC167E070E07E876D8781E0D3
S11305D090E09C878B87A989BA891196BA8FA98FD5
S11305E06B897C896F5F7F4F7C8F6B8F89899A8938
S11305F0840F951F9E8F8D8FAF85B889AB2B89F0A3
S11306002B813C811216130684F4898D9A8DEB8D0F
S1130610FC8D2D8D3E8D0196419182179307D9F75C
S113062007C031E03D831E8205C01D821E8202C0C8
S11306301D821E824B855C85440F551F58874F834E
S11306406B857C85161617060CF0F7C019861A867A
S11306501A0189899A89680F791F7E8B6D8BAB8902
S1130660BC892B853C85A20FB31FB88FAF8B29851E
S11306703A850D8402C0220F331F0A94E2F7F90170
S1130680EE5BFE4F85919491482F2E5F3E4FF9010A
S113069025913491422E6F857889672B09F4419412
S11306A0AD81BE81AB2B19F0482F469546942B8122
S11306B03C8169857A85621773070CF0B2C06B8937
S11306C07C8989859A85680F791F29893A89280F39
S11306D0391FFC01AF89B88DEA0FFB1FAD88BE88B6
S11306E0A80EB91E3C01042F10E0512CD901CB01F6
S11306F0FAA3E9A3B8A2AF8E68018F8C98A0F40185
S1130700208130E0C29E8001C39E100DD29E100D48
S11307101124002E012F000C001F110B000C001FD0
S1130720111F49A15AA15A834983FA01408150E01B
S1130730449EB001459E700D549E700D1124062EEA
S1130740672F000C661F770B000C661F771F78015C
S1130750F594E7940170E00E5B01B594A794EA1850
S11307606170E61AC49EB001C59E700DD49E700DD2
S11307701124AB01042E452F000C441F550B000C13
S1130780441F551F249DB001259D700D349D700D8F
S113079011249B01022E232F000C221F330B000C6B
S11307A0221F331FBA01759567954170640F522F4C
S11307B05170650F35952795260F5D010C91BC018D
S11307C0FC0130814D815E81452B11F006953695F3
S11307D0402F4E19F4014083432F421BE981FA81D3
S11307E04083E00EF501E082230FFB0120832F817B
S11307F03885620E731E4F8D58A1420D531D58A3A8
S11308004F8F69A17AA1620D731D7AA369A3A20D0A
S1130810B31D820D931D2B813C81621673060CF46B
S11308206CCF49855A854F5F5F4F5A8749876B85DF
S11308307C854617570709F01ACF8D859E85019749
S11308409E878D87AB81BC812F8138852A173B0712
S11308504CF43C872B87D0CE8FEF9FEF05C080E010
S113086090E002C080E090E0A2960FB6F894DEBF5C
S11308700FBECDBFDF91CF911F910F91FF90EF90ED
S1130880DF90CF90BF90AF909F908F907F906F90AC
S11308905F904F903F902F900895AF92BF92CF9268
S11308A0DF92EF92FF920F931F93CF93DF938C010C
S11308B07A016B0181E0C81AD108C1E0D0E00C2CA8
S11308C002C0CC0FDD1F0A94E2F75801AC0EBD1E26
S11308D04115510531F09A01A601B801C501F1DDB8
S11308E002C080E090E0C230D10584F0D501F80167
S11308F0319621E030E04C9150815C9340832E5F2F
S11309003F4F129632962C173D07ACF3EF2831F483
S113091020E030E0A601B801C501D3DDDF91CF911D
S11309201F910F91FF90EF90DF90CF90BF90AF9009
S11309300895EAE7F0E08081806E80830895EF9265
S1130940FF920F931F93CF93DF938C01660F660F73
S1130950660F6064E62EC0E0D0E0F801EC0FFD1FE6
S1130960F4908C2F8E0DC2DC8F2DE3DC2196C830E1
S1130970D10599F7DF91CF911F910F91FF90EF90DF
S11309800895DF92EF92FF920F931F93CF93DF931B
S1130990CDB7DEB7C058D1090FB6F894DEBF0FBE8D
S11309A0CDBF11B88FEF82B984B915B887B918B81B
S11309B08AB91BB8AFDC64E071E081E0C3DC87E096
S11309C0A1DC81E4B6DC8CE09DDC84E3B2DC8DE068
S11309D099DC84E3AEDC8EE095DC80E3AADC61E0A4
S11309E082EF90E0ACDF88E18DDC89E0A2DC62E09C
S11309F08AEF90E0A4DF81E185DC8AE09ADC8FE174
S1130A0081DC8AE096DC8AE0B7DC93DF80E797E15B
S1130A10A0E0B0E08093000190930101A093020153
S1130A20B09303018093120190931301A0931401D6
S1130A30B0931501E4DB8091160181113AC08E0157
S1130A400F571F4F0F2EF8E7EF2EF12CF02DD12C5E
S1130A502DC0D7018D919C918193E017F107C9F7BF
S1130A6040E050E060E870E0CE01019616DFFE0140
S1130A7031969D2D8191981708F4982F0E171F0712
S1130A80C9F7993B38F08BE077DC87E03BDC82E404
S1130A9050DC06C08AE070DC87E034DC81E449DCA9
S1130AA0D092160180911601811103C0FE01319686
S1130AB0D0CF80E090E0C058DF4F0FB6F894DEBF8F
S1130AC00FBECDBFDF91CF911F910F91FF90EF909B
S1130AD0DF900895EE0FFF1F0590F491E02D099427
S1070AE0F894FFCFB4
S1130AE4010000006E6F74653A20202066723A207B
S1050AF42000DC
S9030000FC
