S014000066696E616C70726F6A6563742E737265630F
S1130000F4C000000FC100000DC100000BC10000CE
S113001009C1000007C1000005C1000003C10000C0
S113002001C10000FFC00000FDC00000FBC00000D3
S1130030F9C000001CC10000F5C00000F3C00000BE
S1130040F1C00000EFC00000EDC00000EBC00000F4
S1130050E9C00000E7C00000E5C00000E3C0000004
S1130060E1C00000DFC00000DDC00000DBC0000014
S1130070D9C00000D7C00000D5C00000D3C0000024
S1130080D1C00000CFC00000CDC00000D901DC0108
S1130090DF01E201E501E801EB01EE01F101F40108
S11300A0F701FA01FD0100020302060209020C0233
S11300B00F021202150218021B021E022102240260
S11300C027022A022D0230023302360239023C0290
S11300D03F024202450248024B024E0251025402C0
S11300E057025A025D0260026302660269026C02F0
S11300F06F02001F1F1F1F1F1F1F00001F1F1F1F36
S11301001F1F0000001F1F1F1F1F000000001F1FD4
S11301101F1F00000000001F1F1F00000000000040
S11301201F1F000000000000001F000306090C0F41
S11301301215181C1F2225282B2E303336393C3F2C
S1130140414447494C4E515355585A5C5E60626471
S113015066686A6C6D6F70727375767778797A7B7E
S11301607C7C7D7E7E7F7F7F7F7F7F7F7F7F7F7FA5
S11301707E7E7D7C7C7B7A79787776757372706FFE
S11301806D6C6A68666462605E5C5A585553514E81
S11301904C494744413F3C393633302E2B282522E5
S11301A01F1C1815120F0C09060300FDFAF7F4F1D1
S11301B0EEEBE8E4E1DEDBD8D5D2D0CDCAC7C4C1CA
S11301C0BFBCB9B7B4B2AFADABA8A6A4A2A09E9C65
S11301D09A9896949391908E8D8B8A898887868538
S11301E08484838282818181818111241FBECFEF27
S11301F0D0E4DEBFCDBF11E0A0E0B1E0E8E8F1E17A
S113020000E00BBF02C007900D92AA30B107D9F7E6
S113021021E0AAE0B1E001C01D92AF30B207E1F7DE
S11302206AD6B0C7EDCE8BE0809381008DE790E075
S1130230909389008093880082E080936F001092ED
S11302408500109284008091000190910101A09199
S11302500201B091030180930A0190930B01A093D2
S11302600C01B0930D018FB780688FBF08951F9262
S11302700F920FB60F9211248F939F93AF93BF9356
S113028080910A0190910B01A0910C01B0910D0194
S11302900197A109B10980930A0190930B01A093DE
S11302A00C01B0930D01892B8A2B8B2B99F481E0DF
S11302B080930E018091000190910101A0910201AF
S11302C0B091030180930A0190930B01A0930C0158
S11302D0B0930D01BF91AF919F918F910F900FBE7D
S11302E00F901F901895181619069CF440E050E0E2
S11302F077E063E00BC0000021503109211531057E
S1130300D1F74F5F5F4F4817590719F0272F362F42
S1130310F2CF089528988BB9299A0000299882E091
S113032090E0E1CF089581E0F5CF0895813118F48C
S11303308158F0CF08958155EDCF089584E690E07B
S1130340D2DF88E3E7DF86E0E5DF8FE0E3DF81E00B
S1130350E1DF8AE090E0C7CF0895289A8BB9299A03
S11303600000299881E090E0BECF08950F931F9379
S1130370CF93DF93182FEB01D6DF8881882359F0C0
S113038001E0010F812FD2DF8991E7DF8881882383
S113039011F0102FF5CFDF91CF911F910F91089598
S11303A090E08333910508F09DC0FC01EA5BFF4FA8
S11303B0E3C68EE788B9089582E188B908958CEB85
S11303C088B9089586EB88B9089582ED88B90895AF
S11303D086EE88B908958EEE88B9089582E388B9C7
S11303E008958EEF88B9089586EF88B908958AEF45
S11303F088B908958EEC88B908958CE688B9089573
S11304008EE988B908958CEE88B9089588EE88B984
S1130410089581E088B908958EE688B908958AED33
S113042088B908958AEC88B9089588E488B908954C
S11304308EE188B908958CE488B908958AEA88B968
S113044008958AE788B908958AE888B9089588EFF5
S113045088B9089588E688B9089588E888B9089520
S11304608CEC88B908958EE588B908958EE088B932
S1130470089584E588B9089580ED88B9089584EADB
S113048088B9089586ED88B9089588E988B90895EA
S11304908AEB88B9089588EC88B9089582E988B907
S11304A008958AE588B9089580E588B908958AE0B1
S11304B088B9089584E288B9089582EC88B90895CA
S11304C082E488B9089588E188B9089580EE88B9EE
S11304D008958CE888B9089586E888B9089580EB72
S11304E088B9089580E888B908952F923F924F9271
S11304F05F926F927F928F929F92AF92BF92CF92B0
S1130500DF92EF92FF920F931F93CF93DF93CDB7B8
S1130510DEB7A2970FB6F894DEBF0FBECDBF9A8B9D
S1130520898B7C8B6B8B388B2F8781E090E09C01CF
S113053002C0220F331F4A95E2F73C832B832130FC
S113054041E034070CF09CC1B901615071091616E1
S113055017060CF046C0A988BA885FEFA51AB50A39
S1130560AB89BC89119640E050E00B811C81FC01F1
S11305704D01E988FA88CB88DC88802F912F9595E6
S113058087959A01280F391F62177307C4F39C01DA
S11305902150310942235323480F591FE417F5070B
S11305A0B4F4D5012C91C701840F951FDC013C9153
S11305B0D5013C93DC012C93D4012C91C601840F0A
S11305C0951FDC013C91D4013C93DC012C933196C2
S11305D0BFEFAB1ABB0A2FEF821A920A6E177F077E
S11305E064F64B815C81423051050CF44CC167E0E8
S11305F070E07E876D8781E090E09C878B87A98976
S1130600BA891196BA8FA98F6B897C896F5F7F4FE6
S11306107C8F6B8F89899A89840F951F9E8F8D8F0C
S1130620AF85B889AB2B89F02B813C811216130658
S113063084F4898D9A8DEB8DFC8D2D8D3E8D0196E4
S1130640419182179307D9F707C031E03D831E8299
S113065005C01D821E8202C01D821E824B855C85E0
S1130660440F551F58874F836B857C8516161706D4
S11306700CF0F7C019861A861A0189899A89680FBD
S1130680791F7E8B6D8BAB89BC892B853C85A20F32
S1130690B31FB88FAF8B29853A850D8402C0220F12
S11306A0331F0A94E2F7F901E659FE4F85919491BC
S11306B0482F265D3E4FF90125913491422E6F85D6
S11306C07889672B09F44194AD81BE81AB2B19F075
S11306D0482F469546942B813C8169857A8562171B
S11306E073070CF0B2C06B897C8989859A85680F81
S11306F0791F29893A89280F391FFC01AF89B88DE0
S1130700EA0FFB1FAD88BE88A80EB91E3C01042F5A
S113071010E0512CD901CB01FAA3E9A3B8A2AF8E02
S113072068018F8C98A0F401208130E0C29E800182
S1130730C39E100DD29E100D1124002E012F000C0B
S1130740001F110B000C001F111F49A15AA15A834D
S11307504983FA01408150E0449EB001459E700DEA
S1130760549E700D1124062E672F000C661F770B04
S1130770000C661F771F7801F594E7940170E00E72
S11307805B01B594A794EA186170E61AC49EB0019F
S1130790C59E700DD49E700D1124AB01042E452FFF
S11307A0000C441F550B000C441F551F249DB00121
S11307B0259D700D349D700D11249B01022E232F55
S11307C0000C221F330B000C221F331FBA01759536
S11307D067954170640F522F5170650F35952795B9
S11307E0260F5D010C91BC01FC0130814D815E81BD
S11307F0452B11F006953695402F4E19F401408390
S1130800432F421BE981FA814083E00EF501E08227
S1130810230FFB0120832F813885620E731E4F8DB9
S113082058A1420D531D58A34F8F69A17AA1620D9F
S1130830731D7AA369A3A20DB31D820D931D2B8191
S11308403C81621673060CF46CCF49855A854F5F60
S11308505F4F5A8749876B857C854617570709F090
S11308601ACF8D859E8501979E878D87AB81BC812C
S11308702F8138852A173B074CF43C872B87D0CE31
S11308808FEF9FEF05C080E090E002C080E090E031
S1130890A2960FB6F894DEBF0FBECDBFDF91CF9105
S11308A01F910F91FF90EF90DF90CF90BF90AF908A
S11308B09F908F907F906F905F904F903F902F907C
S11308C00895AF92BF92CF92DF92EF92FF920F936F
S11308D01F93CF93DF938C017A016B0181E0C81AD7
S11308E0D108C1E0D0E00C2C02C0CC0FDD1F0A946B
S11308F0E2F75801AC0EBD1E4115510531F09A01C5
S1130900A601B801C501F1DD02C080E090E0C2306B
S1130910D10584F0D501F801319621E030E04C9105
S113092050815C9340832E5F3F4F129632962C1772
S11309303D07ACF3EF2831F420E030E0A601B80124
S1130940C501D3DDDF91CF911F910F91FF90EF90FF
S1130950DF90CF90BF90AF900895CF93803349F448
S1130960C1E18C2FE3DC89E0F8DCCF5FC032C9F74A
S113097098C2833409F581E1D9DC8FE0EEDC82E1B1
S1130980D5DC8EE0EADC83E1D1DC8DE0E6DC84E1D9
S1130990CDDC8CE0E2DC85E1C9DC8BE0DEDC86E1E9
S11309A0C5DC8AE0DADCC7E18C2FC0DC89E0D5DC69
S11309B0CF5FC032C9F775C2813529F581E1B6DC54
S11309C08EE0CBDC82E1B2DC8FE0C7DC83E1AEDC1D
S11309D08EE0C3DC84E1AADC8DE0BFDC85E1A6DC2B
S11309E08CE0BBDC86E1A2DC8BE0B7DC87E19EDC3B
S11309F089E0B3DCC8E18C2F99DC89E0AEDCCF5F01
S1130A00C032C9F74EC2843449F581E18FDC8DE0F0
S1130A10A4DC82E18BDC8EE0A0DC83E187DC8FE068
S1130A209CDC84E183DC8EE098DC85E17FDC8DE076
S1130A3094DC86E17BDC8CE090DC87E177DC8BE086
S1130A408CDC88E173DC89E088DCC9E18C2F6EDC06
S1130A5089E083DCCF5FC032C9F723C2873509F050
S1130A602DC081E163DC8CE078DC82E15FDC8DE029
S1130A7074DC83E15BDC8EE070DC84E157DC8FE0C6
S1130A806CDC85E153DC8EE068DC86E14FDC8DE0D4
S1130A9064DC87E14BDC8CE060DC88E147DC8BE0E4
S1130AA05CDC89E143DC8AE058DCCAE18C2F3EDC63
S1130AB089E053DCCF5FC032C9F7F3C1853409F054
S1130AC031C081E133DC8BE048DC82E12FDC8CE057
S1130AD044DC83E12BDC8DE040DC84E127DC8EE028
S1130AE03CDC85E123DC8FE038DC86E11FDC8EE032
S1130AF034DC87E11BDC8DE030DC88E117DC8CE042
S1130B002CDC89E113DC8BE028DC8AE10FDC8AE051
S1130B1024DCCBE18C2F0ADC89E01FDCCF5FC03200
S1130B20C9F7BFC1863409F035C081E1FFDB8AE033
S1130B3014DC82E1FBDB8BE010DC83E1F7DB8CE08F
S1130B400CDC84E1F3DB8DE008DC85E1EFDB8EE097
S1130B5004DC86E1EBDB8FE000DC87E1E7DB8EE0A1
S1130B60FCDB88E1E3DB8DE0F8DB89E1DFDB8CE0B3
S1130B70F4DB8AE1DBDB8BE0F0DB8BE1D7DB8AE0C3
S1130B80ECDBCCE18C2FD2DB89E0E7DBCF5FC0323A
S1130B90C9F787C1833509F039C081E1C7DB89E032
S1130BA0DCDB82E1C3DB8AE0D8DB83E1BFDB8BE003
S1130BB0D4DB84E1BBDB8CE0D0DB85E1B7DB8DE00B
S1130BC0CCDB86E1B3DB8EE0C8DB87E1AFDB8FE013
S1130BD0C4DB88E1ABDB8EE0C0DB89E1A7DB8DE021
S1130BE0BCDB8AE1A3DB8CE0B8DB8BE19FDB8BE031
S1130BF0B4DB8CE19BDB8AE0B0DBCDE18C2F96DBB0
S1130C0089E0ABDBCF5FC032C9F74BC1873409F051
S1130C103DC081E18BDB89E0A0DB82E187DB89E0F9
S1130C209CDB83E183DB8AE098DB84E17FDB8BE080
S1130C3094DB85E17BDB8CE090DB86E177DB8DE088
S1130C408CDB87E173DB8EE088DB88E16FDB8FE090
S1130C5084DB89E16BDB8EE080DB8AE167DB8DE09E
S1130C607CDB8BE163DB8CE078DB8CE15FDB8BE0AE
S1130C7074DB8DE15BDB8AE070DB8EE157DB89E0BE
S1130C806CDB8FE153DB89E068DB0BC1853509F050
S1130C903DC081E14BDB89E060DB82E147DB89E039
S1130CA05CDB83E143DB89E058DB84E13FDB8AE002
S1130CB054DB85E13BDB8BE050DB86E137DB8CE00A
S1130CC04CDB87E133DB8DE048DB88E12FDB8EE012
S1130CD044DB89E12BDB8FE040DB8AE127DB8EE01C
S1130CE03CDB8BE123DB8DE038DB8CE11FDB8CE02C
S1130CF034DB8DE11BDB8BE030DB8EE117DB8AE03C
S1130D002CDB8FE113DB89E028DBCBC0813409F0D5
S1130D1041C081E10BDB89E020DB82E107DB89E074
S1130D201CDB83E103DB89E018DB84E1FFDA89E083
S1130D3014DB85E1FBDA8AE010DB86E1F7DA8BE08D
S1130D400CDB87E1F3DA8CE008DB88E1EFDA8DE095
S1130D5004DB89E1EBDA8EE000DB8AE1E7DA8FE09D
S1130D60FCDA8BE1E3DA8EE0F8DA8CE1DFDA8DE0AD
S1130D70F4DA8DE1DBDA8CE0F0DA8EE1D7DA8BE0BD
S1130D80ECDA8FE1D3DA8AE0E8DA80E2CFDA89E0DC
S1130D90E4DA87C0823409F041C081E1C7DA89E02E
S1130DA0DCDA82E1C3DA89E0D8DA83E1BFDA89E008
S1130DB0D4DA84E1BBDA89E0D0DA85E1B7DA89E014
S1130DC0CCDA86E1B3DA8AE0C8DA87E1AFDA8BE01D
S1130DD0C4DA88E1ABDA8CE0C0DA89E1A7DA8DE025
S1130DE0BCDA8AE1A3DA8EE0B8DA8BE19FDA8FE02D
S1130DF0B4DA8CE19BDA8EE0B0DA8DE197DA8DE03B
S1130E00ACDA8EE193DA8CE0A8DA8FE18FDA8BE04A
S1130E10A4DA80E28BDA8AE0A0DA43C0893509F0EB
S1130E2040C081E183DA89E098DA82E17FDA89E0FF
S1130E3094DA83E17BDA89E090DA84E177DA89E095
S1130E408CDA85E173DA89E088DA86E16FDA89E0A1
S1130E5084DA87E16BDA8AE080DA88E167DA8BE0AA
S1130E607CDA89E163DA8CE078DA8AE15FDA8DE0B2
S1130E7074DA8BE15BDA8EE070DA8CE157DA8FE0BA
S1130E806CDA8DE153DA8EE068DA8EE14FDA8DE0C8
S1130E9064DA8FE14BDA8CE060DA80E247DA8BE0E7
S1130EA05CDACF910895EAE7F0E08081806E808378
S1130EB00895EF92FF920F931F93CF93DF938C01CA
S1130EC0660F660F660F6064E62EC0E0D0E0F8019E
S1130ED0EC0FFD1FF4908C2F8E0D1CDA8F2D3DDA54
S1130EE02196C830D10599F7DF91CF911F910F91C9
S1130EF0FF90EF900895CF93DF93CDB7DEB7C0583E
S1130F00D1090FB6F894DEBF0FBECDBF11B88FEF75
S1130F1082B984B915B887B918B88AB91BB80EDA7A
S1130F20C2DF84EF91E0A0E0B0E0809300019093F1
S1130F300101A0930201B093030180930A019093ED
S1130F400B01A0930C01B0930D016DD964E071E025
S1130F5081E00CDA61E082E291E0ABDF62E08AE1F9
S1130F6091E0A7DF63E082E191E0A3DF64E08AE03F
S1130F7091E09FDF65E082E091E09BDF66E08AEF2D
S1130F8090E097DF67E082EF90E093DFD12C7E0161
S1130F9081E8E80EF11C08E710E0C12CFE0131964F
S1130FA0D8018D919C918193EE15FF05C9F740E01E
S1130FB050E060E870E0CE01019683DCFE013196DA
S1130FC08C2D2C2D9191291710F4D82E292F8F5F59
S1130FD08038C1F78D2D90EF9D0D9D3060F48CE02D
S1130FE0DFD987E0A3D983E4B8D988E09FD980E228
S1130FF0B4D983E4B9C093EE9D0D963060F48CE0CF
S1131000CFD987E093D983E4A8D988E08FD983E244
S1131010A4D981E5A9C09DED9D0D9C3060F48DE0BF
S1131020BFD987E083D984E498D988E07FD980E266
S113103094D984E499C091ED9D0D9B3060F48EE0C9
S1131040AFD987E073D985E488D988E06FD982E67F
S113105084D987E589C096EC9D0D9B3060F48EE0C1
S11310609FD987E063D985E478D988E05FD980E2A5
S113107074D985E479C09BEB9D0D9B3060F48FE0BF
S11310808FD987E053D986E468D988E04FD980E2C4
S113109064D986E469C090EB9D0D933060F48FE0D1
S11310A07FD987E043D986E458D988E03FD983E2E1
S11310B054D983E559C09DEA9D0D9C3060F481E1CB
S11310C06FD987E033D987E448D988E02FD980E203
S11310D044D987E449C091EA9D0D9B3060F481E1D5
S11310E05FD987E023D987E438D988E01FD983E220
S11310F034D985E539C096E99D0D9C3060F48AE0C9
S11311004FD987E013D981E428D988E00FD980E248
S113111024D981E429C09AE89D0D9B3060F48BE0CA
S11311203FD987E003D982E418D988E0FFD882E662
S113113014D982E419C0813860F08BE031D987E09A
S1131140F5D882E40AD988E0F1D880E206D989E5A5
S11311500BC080E125D987E0E9D880E2FED888E099
S1131160E5D880E2FAD880E3F8DB80910E01882389
S1131170E1F3C0920E0112CFEE0FFF1F0590F49120
S10B1180E02D0994F894FFCF5F
S10D1188010000006E6F74653A0068
S9030000FC
