S014000066696E616C70726F6A6563742E737265630F
S113000080C0000093C0000091C000008FC00000B9
S11300108DC000008BC0000089C0000087C00000B4
S113002085C0000083C0000081C000007FC00000C4
S11300307DC000007BC0000079C0000077C00000D4
S113004075C0000073C0000071C000006FC00000E4
S11300506DC000006BC0000069C0000067C00000F4
S113006065C0000063C0000061C000005FC0000004
S11300705DC000005BC0000059C0000057C0000014
S113008055C0000053C0000051C00000FD00000135
S11300900301060109010C010F01120115011801E8
S11300A01B011E012101240127012A012D01300118
S11300B03301360139013C013F0142014501480148
S11300C04B014E015101540157015A015D01600178
S11300D06301660169016C016F01720175017801A8
S11300E07B017E018101840187018A018D019001D8
S11300F0930104040E1F1F1F0E04040404040404CB
S1130100040411241FBECFEFD0E4DEBFCDBF11E045
S1130110A0E0B1E0E2EFF3E000E00BBF02C0079023
S11301200D92AE30B107D9F726D161C169CF181647
S113013019069CF440E050E077E063E00BC0000057
S11301402150310921153105D1F74F5F5F4F481711
S1130150590719F0272F362FF2CF089528988BB915
S1130160299A0000299882E090E0E1CF089581E087
S1130170F5CF0895813118F48158F0CF0895815551
S1130180EDCF089584E690E0D2DF88E3E7DF86E0F0
S1130190E5DF8FE0E3DF81E0E1DF8AE090E0C7CFD5
S11301A00895289A8BB9299A0000299881E090E053
S11301B0BECF08950F931F93CF93DF93182FEB01B6
S11301C0D6DF8881882359F001E0010F812FD2DF27
S11301D08991E7DF8881882311F0102FF5CFDF9113
S11301E0CF911F910F91089590E08333910508F00A
S11301F09DC0FC01EA5BFF4FF4C08EE788B9089507
S113020082E188B908958CEB88B9089586EB88B9A2
S1130210089582ED88B9089586EE88B908958EEE22
S113022088B9089582E388B908958EEF88B908954E
S113023086EF88B908958AEF88B908958EEC88B955
S113024008958CE688B908958EE988B908958CEEEE
S113025088B9089588EE88B9089581E088B9089529
S11302608EE688B908958AED88B908958AEC88B92C
S1130270089588E488B908958EE188B908958CE4D6
S113028088B908958AEA88B908958AE788B90895EB
S11302908AE888B9089588EF88B9089588E688B906
S11302A0089588E888B908958CEC88B908958EE596
S11302B088B908958EE088B9089584E588B90895C9
S11302C080ED88B9089584EA88B9089586ED88B9DF
S11302D0089588E988B908958AEB88B9089588EC67
S11302E088B9089582E988B908958AE588B9089596
S11302F080E588B908958AE088B9089584E288B9C8
S1130300089582EC88B9089582E488B9089588E153
S113031088B9089580EE88B908958CE888B908955D
S113032086E888B9089580EB88B9089580E888B98B
S11303300895EF92FF920F931F93CF93DF938C0155
S1130340660F660F660F6064E62EC0E0D0E0F80129
S1130350EC0FFD1FF4908C2F8E0D00DF8F2D21DF0D
S11303602196C830D10599F7DF91CF911F910F9154
S1130370FF90EF9008958FEF84B915B88AB91BB830
S113038087B918B8FFDE60E071E081E013DF87E031
S1130390F1DE81E406DF8CE0EDDE84E302DF8DE054
S11303A0E9DE84E3FEDE8EE0E5DE80E3FADE61E092
S11303B082EF90E0BEDF88E1DDDE89E0F2DE62E01C
S11303C08AEF90E0B6DF81E1D5DE8AE0EADE8FE1F4
S11303D0D1DE8AE0E6DE85B18B6085B98AE004DF90
S11303E0FFCFEE0FFF1F0590F491E02D0994F894D0
S10503F0FFCF39
S11103F26E6F74653A20202066723A20200057
S9030000FC
